:020000040800F2
:10000000788D00209D010008FB3C00084D3700085A
:10001000F93C00089F040008196600080000000071
:10002000000000000000000000000000754A000809
:1000300059070008000000006D3E0008814A0008D2
:10004000B7010008B7010008B7010008B7010008B0
:10005000B7010008B7010008B7010008B7010008A0
:10006000B7010008B7010008B7010008B701000890
:10007000B7010008B7010008B7010008B701000880
:10008000B7010008B7010008B7010008B701000870
:10009000B7010008B7010008B7010008B701000860
:1000A000B7010008B7010008B7010008B701000850
:1000B000B7010008B7010008B7010008B701000840
:1000C000B7010008B7010008B7010008B701000830
:1000D000B7010008B70100084D4E0008594E00084E
:1000E000B7010008B7010008B7010008B701000810
:1000F000B7010008B7010008B7010008B701000800
:10010000B7010008F13E0008B7010008B701000878
:10011000B7010008B7010008B7010008B7010008DF
:10012000B7010008B7010008B7010008C5060008BC
:10013000B7010008B7010008B7010008B7010008BF
:10014000B7010008B7010008B7010008FD3C00082E
:10015000B7010008D1060008B7010008654E000885
:10016000B7010008B7010008B7010008B70100088F
:10017000B7010008B7010008B7010008000000003F
:10018000B7010008B7010008DFF80CD000F0AAF8AA
:1001900000480047F97A0008788D0020064880471B
:1001A00006480047FEE7FEE7FEE7FEE7FEE7FEE75C
:1001B000FEE7FEE7FEE7FEE7414B00088901000885
:1001C0002DE9F05F0546002092469B46884606468C
:1001D000814640241BE0284641464746224600F01F
:1001E00071F853465A46C01A914110D31146184629
:1001F000224600F058F82D1A67EB01084F462246B8
:100200000120002100F04FF817EB00094E41201E9D
:10021000A4F10104DFDC484631462A464346BDE8E6
:10022000F09F40EA01039B0703D009E008C9121FB1
:1002300008C0042AFAD203E011F8013B00F8013BA0
:10024000521EF9D27047D2B201E000F8012B491ECC
:10025000FBD270470022F6E710B513460A46044663
:100260001946FFF7F0FF204610BD421C10F8011B95
:100270000029FBD1801A704710B5002200E0521C03
:10028000835C8C5CA34201D1002BF8D1D8B2E1B2DF
:10029000401A10BD034611F8012B00F8012B002A6B
:1002A000F9D118467047202A04DB203A00FA02F1FF
:1002B000002070479140C2F1200320FA03F3194354
:1002C00090407047202A04DB203A21FA02F00021F6
:1002D000704721FA02F3D040C2F120029140084356
:1002E00019467047064C074D06E0E06840F00103F0
:1002F00094E8070098471034AC42F6D3FFF748FF64
:1003000084880008A488000870B58D1810F8014B87
:1003100014F0030201D110F8012B231106D110F8BB
:10032000013B03E010F8016B01F8016B521EF9D19B
:10033000ABB110F8012B04F00C048A1A0C2C03D07A
:10034000A2EB84129B1C08E010F8014BA2EB0422E4
:10035000F8E712F8014B01F8014B5B1EF9D5A942F1
:10036000D4D3002070BD00002DE9F041164D4FF4AC
:10037000006400222146284600F0A5FC0122160355
:100380003146284600F09FFC4FF4FA77384600F0DB
:100390009DFB00222146284600F095FC00223146B4
:1003A000284600F090FC384600F090FB302007F023
:1003B0004FFC002007F04CFC012007F049FCBDE891
:1003C000F041002007F044BC000C024010B50124AD
:1003D0002146034800F072FC00B10024204610BD05
:1003E000000C0240704700000146014802F03AB894
:1003F000A829002010B5044802F046F8042801D0CE
:10040000012010BD002010BDA829002010B500F06B
:1004100015F8012801D0012010BD074802F052F95B
:10042000040006D14FF40061034801F0C1FE00B1A1
:100430000124204610BD0000A829002008B5012095
:100440008DF80000FFF7C2FF10B900208DF8000002
:100450009DF8000008BD000038B500240093134645
:100460000A460146034802F035FA00B1012420464D
:1004700038BD0000A82900207047000038B50024CE
:10048000009313460A460146034802F019FB00B1E7
:100490000124204638BD0000A82900207047FEE74F
:1004A000ADF5F96D242251A10DF2A470FFF7B9FE4C
:1004B00040F216526946564803F0BAF80226002464
:1004C000DFF8509101254FF4FA6B4FF4005A5F4664
:1004D000584600F0FBFA01225146484600F0F3FB73
:1004E00007F08AF9384600F0F1FA07F0ABF94FF05F
:1004F000FF373B4614224849454803F0AFF84FF414
:100500007A78404600F0E2FA07F09CF942493B460F
:10051000312214313E4803F0A1F8404600F0D6FAEB
:1005200007F090F93C493B462E224531384803F00C
:1005300095F8404600F0CAFA07F05EF9761E012EE3
:100540002DD06F460DF5A3680DF5A360FFF78DFE66
:10055000A0422ED36846FFF788FE04EB5000395CBA
:1005600008F80410641CEFE76846FFF77EFE81B2CE
:10057000684600F089F8384600F0A8FA07F062F9FA
:1005800007F060F907F05EF90DF2A470FFF76DFE59
:1005900081B20DF2A47000F077F86D1E01E04FF407
:1005A000FA77002DE0D100225146484600F08BFB3F
:1005B0000AE00DF5A360FFF758FE81B20DF5A360C8
:1005C00000F062F807F03EF9002E80D14FF400658C
:1005D0004C466E0000222946204600F074FB0122A2
:1005E0003146204600F06FFBF4E700000A0A202A9B
:1005F0002A2A2A5345434F4E442050494E47204112
:100600005454454D50542A2A2A2A200A0A00000030
:100610000C2B0020000C02408006002000207047B8
:100620000020704710B500220449054804F02FFD52
:100630000449034804F022FD002010BD4C45002071
:10064000542C00204C3D002070B50C460546014658
:100650000A4804F013FD094804F0F5FC2478402111
:100660000748FFF7F7FD224629460548FFF7D9FD61
:1006700021462846FFF7EEFD002070BD542C0020D7
:100680008C0800200020704770B50C4605460022FB
:100690000A490B4804F0FBFC0948D0F8BC12D1F819
:1006A000140808B1012070BD22462946044804F010
:1006B000EEFCBDE87040024804F053BD4C450020FC
:1006C000542C0020014800F0C7B80000942B0020F3
:1006D000014800F0C1B80000F42B00200168182385
:1006E000CAB2103AB2FBF3F2054B6FF30901032AC9
:1006F0009B5CC36500D9091D8165084670470000F1
:10070000C887000810B5014600208B698A6A4FF03F
:10071000C07453B1B3F5005F15D072B1012A0CD08B
:10072000022A0AD0032A09D104E01AB1012A06D00C
:10073000022A03D1C96AC90100D5012010BDC96AC6
:10074000A142FAD010BD002AF7D0012AF2D0022A25
:10075000F3D0032AF3D010BD704772B6FEE7002233
:10076000AFF3008030B50E4B054601205C7A002CBB
:1007700014D1587A1C54587A03EB800045605D7A96
:1007800003F108002A54587A421C5A72303008701B
:100790003A2048702F208870CC70002030BD0000B7
:1007A0006C4D00202DE9F0410446876D00F090FA71
:1007B000054694F835000026022806D080206065A2
:1007C00084F834600120BDE8F0812068016821F0E0
:1007D000160101602068416921F080014161206CAF
:1007E00008B9A06C20B12068016821F008010160FF
:1007F0002068016821F0010101600BE000F068FA57
:10080000401B052806D92020606504F8346F0320BA
:100810006070D8E720680068C007EFD194F85C10DA
:100820003F208840B86004F8346F012060700020D9
:10083000C9E790F83510022903D0802141650120D5
:100840007047052180F835100068016821F001012A
:1008500001600020704700002DE9F84304464FF086
:100860000009CDF8009063484FF41651A56D00685B
:10087000B0FBF1F72E6894F85C20082101FA02F031
:1008800030420FD02068026852070BD5026822F070
:100890000402026094F85C008140A960606D40F041
:1008A0000100606594F85C104FF0010808FA01F04F
:1008B000304208D021684969090604D5A860606DF6
:1008C00040F00200606594F85C10042088403042DB
:1008D00008D021680968890704D5A860606D40F0D8
:1008E0000400606594F85C1010208840304218D0F5
:1008F00021680968090714D5A860206801684903C0
:1009000004D50068000308D5A16C07E00168C9059B
:1009100003D4016821F008010160216C09B120466F
:10092000884794F85C1020208840304231D02168FC
:100930000968C9062DD5A86094F8350005282068F7
:10094000016806D0490347D5006800031DD4616CD7
:100950001CE021F0160101602068416921F080014E
:100960004161206C08B9A06C20B12068016821F0B9
:100970000801016094F85C103F208840A86084F86A
:10098000349084F83580216D1FE0E16B09B1204679
:100990008847606D00282BD0606DC00714D00520FB
:1009A00084F835002068016821F001010160009899
:1009B000401C0090B84203D820680068C007F6D1F8
:1009C00084F8349084F83580E16C002910D001B0AF
:1009D0002046BDE8F04308470168C905D5D4016841
:1009E00021F01001016084F8349084F83580CCE760
:1009F000BDE8F8836C0700202DE9F041044600F0C3
:100A000067F905465CB1002684F83460022084F85A
:100A100035002068016821F0010101600DE001202E
:100A2000BDE8F08100F054F9401B052805D92020CD
:100A30006065032084F83500F2E720680068C0078D
:100A4000F0D121680A6820480240D4E90103184324
:100A5000D4E903352B43184363691843A36918434A
:100A6000E3691843236A18431043626A042A03D1D6
:100A7000D4E90B231A431043086020684069656A73
:100A800020F0070128460D43012704280CD1A06A55
:100A90000543E06A40B12046FFF734FE20B1402014
:100AA000606584F83570BAE7206845612046FFF735
:100AB00015FE94F85C203F2191408160666584F8C2
:100AC00035700020ACE700003F8010F070B50446A0
:100AD00000F0FEF80546601C02D00448007804448B
:100AE00000F0F6F8401BA042FAD370BD600700206A
:100AF0002DE9F84FDFF89891002209F1040A0AF174
:100B0000040B03274FF00F0C0BF1040E01250B68AB
:100B100095402B40AB4272D10C7904F00304012CB8
:100B200001D0022C15D18668540007FA04F826EA91
:100B30000806D1F80C8008FA04F848EA0608C0F85C
:100B400008804468AC430D79C5F3001595402543F2
:100B500045600C79E443A40708D0C568540007FA3F
:100B600004F6B5438E68A6402E43C6600C7904F0A7
:100B70000304022C11D1D40800EB8406356A540713
:100B8000E40E0CFA04F825EA0805D1F8108008FAFA
:100B900004F848EA0508C6F820800568540007FAFA
:100BA00004F6B5430E7906F00306A6402E43066010
:100BB0004C68E40066D5374C256845F480452560CF
:100BC000246822F0030504F480440094324C05EBC1
:100BD0000408D8F808589407260F0CFA06F4A54321
:100BE0002E4CA04201D1002424E02D4CA04201D182
:100BF00001241FE02B4CA04202D102241AE041E064
:100C0000294CA04201D1032414E0284CA04201D178
:100C100004240FE0264CA04201D105240AE0254C13
:100C2000A04201D1062405E0234CA04201D10724B3
:100C300000E00824B4402C43C8F80848D9F8004024
:100C40004D464E689C43F60300D51C432C60DAF8F1
:100C5000004055464E689C43B60300D51C432C60AB
:100C6000DBF800405D464E689C43F60200D51C430D
:100C70002C60DEF8004075464E689C43B60200D5F5
:100C80001C432C60521C102AFFF440AFBDE8F88FC3
:100C9000003C014044380240003001400000024066
:100CA0000004024000080240000C02400010024014
:100CB0000014024000180240001C02400069084075
:100CC00000D0012070470AB1816170470904FBE739
:100CD0000148806870470000600700200248816872
:100CE0000278114481607047600700200B4810B5FE
:100CF000016841F400710160016841F480610160A4
:100D0000016841F480710160032000F06FF8002059
:100D100000F006F800F024F8002010BD003C02406E
:100D200070B50D4D04464FF47A712878B1FBF0F0A0
:100D30000A490968B1FBF0F002F074FA48B9102CC6
:100D400007D200222146501E00F030F800206C60CF
:100D500070BD012070BD0000600700206C070020FE
:100D60000A4808B5016841F480410160006800F458
:100D7000804000900548001F016841F080510160EB
:100D8000006800F08050009008BD00004438024028
:100D9000002809DB00F01F0201219140400980007A
:100DA00000F1E020C0F8001170470000F0B40E4BD5
:100DB0001B68C3F30223C3F10704042C00D90424E5
:100DC0001D1D072D01D2002300E0DB1E012606FABF
:100DD00004F56D1E0D409D409E40761E164045EA6E
:100DE0000601F0BC05F019BC0CED00E0064A00F06D
:100DF000070110684FF6FF03184040EA012003493D
:100E000008431060704700000CED00E00000FA0598
:100E100070470068416200207047F0B50368586A67
:100E200039B19C6A4FF4827500EB144400204E1EC9
:100E30000AE040EA024098620FE005EB8007DF59C4
:100E4000401C04EB1744C0B2B042F6D344EA02405F
:100E50004FF4807202EB810158500020F0BDD0F8B1
:100E6000040404F0B5BBC1EBC10200EB8202D0F870
:100E70000404926C04F022BBC1EBC10200EB8202BD
:100E8000D0F80404D2F8082204F06CBBD0F80404B3
:100E900004F0A0BB70B504460B0601F00F00C0EBD8
:100EA000C00104EB81014FF001024FF0000503D5B2
:100EB00081F83D203C3103E081F8FD5101F5FE71E0
:100EC000087094F8BC03012808D084F8BC2320687B
:100ED00004F03AFF84F8BC53002070BD022070BDBE
:100EE00070B5044601F00F006268904201D90120FC
:100EF00070BD0B0601F00F01C1EBC10104EB8101D4
:100F00004FF001024FF0000503D581F83D203C3140
:100F100003E081F8FD5101F5FE718D70087094F8C1
:100F2000BC03012808D084F8BC23206805F008F928
:100F300084F8BC53002070BD022070BD01F00F0189
:100F4000C1EBC10100EB8100D0F8140270472DE91C
:100F5000F04104460F0601F00F00C0EBC00104EBA6
:100F600081014FF001064FF0000503D581F83D6087
:100F70003C3103E081F8FD5101F5FE7108708A6093
:100F8000CB704A7802B1C880022B00D10D7194F861
:100F9000BC03012809D084F8BC63206804F032FE49
:100FA000284684F8BC53BDE8F0810220FBE770B509
:100FB0000D4601F00F04C4EBC40100EB8101C1F840
:100FC0001032C1F808220023C1F8143281F8FD3133
:100FD00081F8FC41036901F5FE71012B00D10A6122
:100FE0002A07027C006803D005F002F9002070BDDA
:100FF00004F0EEFFFAE770B504460D4601F00F006D
:101000006168884201D9012070BD29064FF00006B1
:101010004FF0010207D5C0EBC00104EB810181F85C
:101020003D203C3107E0C5EBC50104EB810181F8AF
:10103000FD6101F5FE718A70087094F8BC03012807
:1010400007D084F8BC23206805F0A6F8280702D052
:1010500007E0022070BD217C04F57172206805F064
:1010600043F884F8BC63002070BD70B50D4601F0F4
:101070000F04C4EBC40100EB81010B658A640023FB
:101080004B65012381F83D3001F83C4F0369012B8A
:1010900000D10A612A07027C006803D005F0A8F895
:1010A000002070BD04F094FFFAE700002DE9F84F2E
:1010B00005680446284605F0C2F900287ED120685C
:1010C00005F0E9F9002879D0206805F0E4F98007F7
:1010D00004D52068416901F002014161206805F0F2
:1010E000DAF9C10604F57170009034D52068816981
:1010F00021F0100181612F6A07F00F00C0EBC000E2
:1011000004EB8006C7F3434006F5FE76022802D0C2
:10111000062811D01AE047F6F070074216D0C7F340
:101120000A1217462846F16805F0B9F9F068384404
:10113000F060B069384408E008222846009905F0BC
:10114000AEF9B069C7F30A110844B061206881693B
:1011500041F010018161206805F09DF900034FF016
:10116000010B5AD50026206805F074F98046DFF897
:1011700064A34FE05FEAC87049D0F1B2206805F07F
:1011800082F90746C00707D005EB4611C1F808BB36
:101190003146204602F0B8FD380722D505EB46114E
:1011A0000820C1F8080B2068D0F8409000EB4610EA
:1011B000D0F8081BD14507D9090400E087E103D521
:1011C0004FF40041C0F8081B204600F073FAD145E7
:1011D00007D92069012804D120680121009A04F070
:1011E00083FFF80604D505EB46111020C1F8080B63
:1011F000B80604D505EB46112020C1F8080BB80449
:1012000005D505EB46114FF40050C1F8080B4FEA25
:101210005808761CB8F1000FACD1206805F03BF9F6
:1012200040034FF000095BD5206805F00CF98046BB
:10123000002652E05FEAC8704CD0F1B2206805F099
:1012400010F90746C00723D006F00F010BFA01F092
:10125000D5F834188143C5F8341805EB4610C0F8AA
:1012600008B9206901280FD1C6EBC60004EB800045
:10127000D0E911211144816436B9206D20B920686C
:101280000121009A04F030FFF1B22046FFF7EBFD98
:10129000380704D505EB46110820C1F80809F806FF
:1012A00004D505EB46111020C1F80809780604D5CD
:1012B00005EB46114020C1F80809B80704D505EB35
:1012C00046110220C1F80809380603D531462046E8
:1012D00002F080FD4FEA5808761CB8F1000FA9D142
:1012E000206805F0D8F8002811DAD5F8040820F0B5
:1012F0000100C5F8040894F8F403012829D0204619
:1013000000F0BCF92068416901F0004141612068AA
:1013100005F0C1F800050BD5D5F80808C00702D0C4
:10132000204600F0EFF92068416901F40061416155
:10133000206805F0B0F8C00468D5D5F8040820F09E
:101340000100C5F804081021206805F059F80021B3
:1013500027E084F8F49300212046FFF759FDD1E7F8
:1013600005EB41104FF67F32C0F80829D0F800395C
:1013700023F40013C0F80039D0F8003943F00063BB
:10138000C0F80039C0F8082BD0F8002B22F4001266
:10139000C0F8002BD0F8002B42F00062C0F8002B00
:1013A000491C60688842DBD8D5F81C0840F0011061
:1013B000C5F81C08206B60B1D5F8840840F00B001C
:1013C000C5F88408D5F8440840F00B00C5F8440877
:1013D0000CE0D5F8140842F22B010843C5F81408B4
:1013E000D5F8100840F00B00C5F81008D5F8000833
:1013F00020F4FE60C5F80008217C2068009A04F003
:1014000073FE2068416901F480514161206805F054
:1014100042F8800415D5206804F034FC206805F0FB
:1014200001F8E06000F0BEFA0146227B206805F07A
:101430006DF8204600F00CF92068416901F4005174
:101440004161206805F027F8000707D5204600F025
:1014500019F92068416901F008014161206805F02F
:101460001AF8C00208D50021204600F035F820689F
:10147000416901F480114161206805F00CF8800297
:1014800008D50021204600F02BF82068416901F4BE
:1014900000114161206804F0FEFF400007D520469E
:1014A000FFF7DDFC2068416901F08041416120685F
:1014B00004F0F1FF40070AD520684568680702D5A7
:1014C0002046FFF7E3FC2068416829434160BDE8FE
:1014D000F88F00000A30544FD0F8040404F0CAB862
:1014E000D0F8040404F0D6B82DE9F0418AB0040025
:1014F00005D094F8BD032668002520B108E001203E
:101500000AB0BDE8F08184F8BC53204600F05EF8D4
:10151000032084F8BD03F06BC00500D4256120686A
:1015200004F050FD04F11001282288466846FEF7B9
:1015300078FE94E80F0004F0B3FB0227C8BB00213B
:10154000206804F0BBFF002101260EE0C1EBC100C2
:1015500004EB800080F83D6000F83C1FC180C5703E
:101560008560C560491CC9B2456160688842EDD894
:10157000002111E0C1EBC10004EB800080F8FD51B7
:1015800080F8FC1180F8FF51C0F80452C0F80852EE
:10159000491CC9B2C0F8105260688842EAD82822B3
:1015A00041466846FEF73DFE94E80F0004F050FC0B
:1015B00010B184F8BD73A2E784F8385084F8BD6395
:1015C000206804F037FC00209AE7000010B586B0D0
:1015D000044614216846FEF73DFE2068B0F1A04F96
:1015E0002FD119480021026842F001020260006810
:1015F00000F0010005904FF4C05000900220CDE9AA
:101600000101032003900A20049069460F48FFF768
:101610006FFA0D48001D016841F0800101600A4821
:101620001430016841F4804101600068002200F438
:101630008040059011464320FFF7B8FB4320FFF799
:10164000A7FB06B010BD0000303802400000024089
:1016500070B50446C068012570B1022801D0FFF7BB
:101660007CF82946D4F8040404F080F8D4F8040483
:10167000BDE8704004F033B80025F2E7D0F8040468
:1016800004F05AB8D0F8040404F060B810B5044669
:1016900090F8BC0301280BD0012084F8BC0384F827
:1016A0003810206804F021FF002084F8BC0310BD2E
:1016B000022010BDD0F8042400F57171104604F02A
:1016C00061B810B50446006894F8BC13012906D02F
:1016D000012184F8BC13A16A012902D008E002208C
:1016E00010BDA169012903D0816B41F48031816370
:1016F000206804F06FFE206804F08EFB002084F860
:10170000BC0310BD10B50446D0F8040404F07CF806
:101710002068D0F8001E41F00101C0F8001E206AC8
:10172000002804D00248016841F00601016010BDA4
:1017300010ED00E02DE9F843044600684FF0010980
:10174000C1074FF0000501D1400726D5DFF80C8115
:10175000C8F86850FFF7BCFA0646414F04E0FFF7AF
:10176000B7FA801B022857D838680001F7D46068A0
:10177000217A800140EA0170394984310860C8F853
:101780006890FFF7A5FA064604E0FFF7A1FA801B70
:10179000022841D838680001F7D52078800752D553
:1017A0002F484030016841F08051016000682D4FA2
:1017B00000F080500090386840F480703860FFF787
:1017C00087FA064604E0FFF783FA801B022823D835
:1017D0003868C005F7D5224E7036306810F4407076
:1017E00020D0A18901F4407181421BD030681E498C
:1017F00020F44070C1F800900D6030603068C00780
:1018000010D0FFF765FA054641F2883707E0FFF789
:101810005FFA401BB84202D90320BDE8F883306864
:101820008007F4D5E0680E49C0F301220831032A8D
:101830000BD0086820F4F81008603068A189C1F363
:101840000B01084330600020E7E70A68074B22F4E9
:10185000F812184002430A60EFE700000000474218
:101860000038024000700040400E4742FFFCFF0F6E
:101870002DE9F0470D46040065D0DFF81491D9F842
:101880000000EFB200F00700A84207D289F800700C
:10189000D9F8000000F00700A84254D120683D4E5E
:1018A000810712D5400703D5306840F4E05030601E
:1018B0002078000703D5306840F46040306030681D
:1018C000A16820F0F000084330602078C0072DD0D8
:1018D000304960680839012812D0022813D0032843
:1018E00011D00968890700292DDA316821F0030138
:1018F00001433160FFF7ECF9804641F2883A0EE08F
:1019000009688903EFE709688901ECE7FFF7E0F967
:10191000A0EB0801514502D90320BDE8F0873068EB
:10192000616800F00C00B0EB810FEFD1D9F8001026
:10193000484601F00701A94207D90770006800F086
:101940000700A84201D00120E7E72078400705D52D
:101950003068E16820F4E0500843306020780007E8
:1019600006D53068216920F4604040EAC10030604B
:1019700000F03EF83168084AC1F30311515CC840D9
:101980000649086006480068FFF7CAF90020C4E766
:10199000003C024008380240D08700086C07002055
:1019A0006407002001480068704700006C070020B1
:1019B0000448054900680968044AC1F38221515C62
:1019C000C84070476C07002008380240E0870008D4
:1019D0000448054900680968044AC1F34231515C72
:1019E000C84070476C07002008380240E0870008B4
:1019F000154810B5006810F00C01144813D0144BB2
:101A000004290FD008290ED10F4C241F216801F0A2
:101A10003F022168490207D52068C0F38810A0FB67
:101A2000030106E0184610BD2168C1F38811A1FB2F
:101A300000010023FEF7C4FB2168C1F30141491CEA
:101A40004900B0FBF1F010BD083802400024F4005A
:101A500040787D012DE9F84F040075D02078DFF83B
:101A600038A3C007AAF1040548D00AF104000168B0
:101A7000C1F38101012908D00068C0F38100022868
:101A80000AD1DAF80000400206D52868800335D56F
:101A900060680028E1D031E06068B0F5803F10D088
:101AA000B0F5A02F286810D020F480302860286876
:101AB00020F4802028606068A0B1FFF709F906468D
:101AC0000CE0286840F48030F4E740F4802028607F
:101AD000F7E7FFF7FDF8801B642871D828688003BA
:101AE000F7D50BE0FFF7F4F8064604E0FFF7F0F84F
:101AF000801B6428F1D828688003F7D42078DFF8A9
:101B00009C9280074FF0000B3DD5A348001D016853
:101B100011F00C0F08D00068C0F3810002280AD130
:101B2000DAF80000400206D42868800715D5E0687E
:101B3000012809D111E0E068B8B10120C9F800001E
:101B4000FFF7C6F8064605E022E1FFF7C1F8801B63
:101B50000228C2D828688007F7D52868216920F0B4
:101B6000F80040EAC10028600DE0C9F800B0FFF7B6
:101B7000AFF8064604E0FFF7ABF8801B02281FD839
:101B800028688007F7D42078000722D5824F844840
:101B90006169703771B101210160FFF799F806465C
:101BA00004E0FFF795F8801B022809D83868800701
:101BB000F7D50EE0C0F800B0FFF78AF8064605E05A
:101BC00082E0FFF785F8801B02287DD838688007FF
:101BD000F7D42078400765D56F484FF000083C30B7
:101BE0000068C0000BD46C483C30016841F0805163
:101BF000016000684FF0010800F080500090694FCC
:101C00003868C0050FD4386840F480703860FFF73A
:101C10005FF8064604E0FFF75BF8801B022853D804
:101C20003868C005F7D55C4FA0686C3701280FD025
:101C30000528386810D020F001003860386820F09E
:101C400004003860A068B0B1FFF742F806460EE025
:101C5000386840F00100F4E740F004003860F7E72E
:101C6000FFF736F8811B41F28830814263D838682B
:101C70008007F5D50DE0FFF72BF8064606E0FFF7E5
:101C800027F8811B41F28830814254D83868800798
:101C9000F5D4B8F1000F05D03F483C30016821F081
:101CA00080510160A069B8B33B49091D0968C1F3BF
:101CB0008101022946D00228584606D0C9F86000A2
:101CC000FFF706F8044639E035E04F46C9F86000F2
:101CD000FEF7FEFF064604E0FEF7FAFF801B02282F
:101CE00029D828688001F7D4D4E907010843A16AFC
:101CF0002D4A490802EB0141626A41EA8211084318
:101D000094F82C1040EA0161CAF8001001203866EE
:101D1000FEF7DEFF044605E03CE0FEF7D9FF001BBE
:101D2000022808D828688001F7D533E0FEF7D0FFF5
:101D3000001B022802D90320BDE8F88F2868800123
:101D4000F4D427E00128F7D0DAF80000E26900F4C3
:101D5000800191421CD1226A00F03F01914217D1CB
:101D600047F6C071626A0140B1EB821F10D1A26ACE
:101D70004FF0FF3300F4403103EB5202B1EB024F5E
:101D800006D194F82C1000F07060B0EB016F01D018
:101D90000120D1E70020CFE704380240000047428D
:101DA000800E4742007000400000FFFF70B5040045
:101DB00002D0607F10B106E0012070BD00202077C6
:101DC000204600F049F8022060772168CA20486266
:101DD000216853204862204602F054F8FF2504266B
:101DE00018BB206881681B4A1140816020688168A7
:101DF00062681143D4E904231A43114381602168C6
:101E0000E068086120680169228941EA02410161B4
:101E10002068C16821F08001C16020688068800668
:101E200007D4204600F0A6F918B12068456266770D
:101E3000C2E72068016C21F4802101642068016CF4
:101E4000A269114301642068456201206077002087
:101E500070BD0000BFFF8FFF00680349884202D1B8
:101E60000249012008607047002800403C0E4742AC
:101E70002DE9F05F0446007F0B46012840D04FF06B
:101E8000010A84F81CA00220607720680026806880
:101E90004FEA40609AB3002800DBDE7099781A7828
:101EA000DD7841EA02415A78D869120242EA0542D5
:101EB000114393F8202041EA0265054358695F68A1
:101EC0000543986921680743CA2048622168532066
:101ED0004862586A4FF0FF09B0F5807F20684FF4E0
:101EE0007A7B81682AD021F4007181602068816842
:101EF00021F400518160FEF7EBFE80464AE002E0EB
:101F00000220BDE8F09F002800DBDE70187801F0A9
:101F1000AEFF0204587801F0AAFF42EA0022987846
:101F200001F0A5FF0243D87842EA004293F820006E
:101F300001F09DFF42EA0065D869BEE721F4807197
:101F400081602068816821F480518160FEF7C0FEC5
:101F5000804605E0FEF7BCFEA0EB0800584512D80D
:101F60002068C068C007F5D02068C5612068476454
:101F70002068816841F4807118E0FEF7A9FEA0EBAB
:101F80000800584506D92168C1F8249003206077DD
:101F90002677B6E72068C0688007EED5206805621E
:101FA000206887642068816841F40071816021683D
:101FB000C1F8249084F81DA026770020A1E7000036
:101FC0002DE9F0470446007F0B4601281FD04FF053
:101FD000010984F81C9002206077DAB19878D978EA
:101FE00040EA014558781978000240EA413005433B
:101FF0002168CA204862216853204862204601F0C7
:1020000041FF0026FF274FF0040860BB1AE00220C2
:10201000BDE8F0875878C10603D500F0EF000A301C
:102020005870D87801F023FF0204587801F01FFFA0
:1020300042EA0022987801F01AFF0243187842EA37
:102040004035D5E70F480540206845602068C168E5
:1020500021F08001C1602068806880060AD4204693
:1020600000F088F830B12068476284F81D80267738
:102070000120CDE72068476284F81D902677002074
:10208000C6E700003FFFFF002DE9F0470446007F50
:102090000D46012827D04FF0010A84F81CA0022029
:1020A00060772068002680684FEA4060F2B100281F
:1020B00000DBEE70A878297840EA01476878E97873
:1020C000000240EA014007432168CA2048622168B3
:1020D00053204862204601F0D5FE4FF0FF084FF034
:1020E0000409A0BB16E00220BDE8F087002800DB51
:1020F000EE70287801F0BBFE0204687801F0B7FEAC
:1021000042EA0022A87801F0B2FE0243E87842EAEF
:102110000047D9E7164807402068076020688168B3
:1021200021F480218160D5E9031001432068826891
:10213000114381602068C16821F08001C16020687E
:10214000806880060BD4204600F014F838B121686E
:10215000C1F8248084F81D9026770120C4E7216807
:10216000C1F8248084F81DA026770020BCE7000079
:102170007F7F7F0070B505460068C16821F0A0012F
:10218000C160FEF7A5FD04464FF47A7606E0FEF73F
:102190009FFD001BB04201D9032070BD2868C068B4
:1021A0008006F4D5002070BD10B5FEF71BF910BDF8
:1021B0002DE9FE430446002603200D4684F8340032
:1021C000606C03285ED0B5F5805F5BD04FF400678C
:1021D00000204FF08068BD421FD1814600900190E1
:1021E0000021206801F080FE800113D4694620465A
:1021F00002F0F2F907000DD10198400334D5B4F88C
:1022000050000104206801F0ABFE070002D102215A
:10221000206823E0A06B384328E01DB1A06B40F09C
:10222000006023E08146009001900021206801F0C9
:102230005BFE8001EED46946204602F0CDF907002E
:10224000E8D10198C0030FD5B4F85000010420680C
:1022500001F086FE0700DDD10021206801F0CAFEF2
:102260000700D7D14F46D5E74746D3E7A063A06B19
:10227000144F4FF0010848B12068876384F8348018
:1022800001260EE0A06B40F08050EFE7211DD4E95D
:10229000050C0EC9CDE90050CDF808C0206801F04A
:1022A0002DFE4FF40071206801F08CFE28B12168EA
:1022B0008F63A16B0143A163012684F8348030460B
:1022C000BDE8FE83FF05400070470000F0B5426E98
:1022D000920F0A70426EC2F383624A70426EC2F37A
:1022E00001628A70426E120CCA70B0F86420120A41
:1022F0000A7190F864204A71826E120DCA80826E53
:10230000C2F303420A72B0F86820C2F3C0324A72C4
:10231000B0F86820C2F380328A72B0F86820C2F345
:102320004032CA72B0F86820C2F300320A73002645
:102330004E73436C4FF40075012463B1012B3AD006
:10234000026847499163816B41F08051816380F855
:1023500034400120F0BDB0F86820C36E9205120D24
:1023600042EA93720A61C26EC2F3C2620A75C26E19
:10237000C2F302624A75C26EC2F342528A75C26EDD
:10238000C2F38242CA75C26EC2F3C2320A760B69C8
:102390005B1C43650A7E02F00702921C9340436572
:1023A0000A7A02F00F0704FA07F28265520A5343D1
:1023B000C0E917350EE090F86820C36E9206920AC5
:1023C00042EA13420A610A69521C93024365C0E95A
:1023D0001653056630F86C2FC2F3803201F8192FBE
:1023E0000288C2F3C6124A70027802F07F028A7035
:1023F0004268D20FCA704268C2F341720A714268E1
:10240000C2F382624A714268C2F383528A7142689F
:10241000C2F34052CA710E724268C2F300424A725D
:102420008288C2F3C0328A728288C2F38032CA7252
:102430008288C2F340320A738288C2F300324A7340
:102440008288C2F381228A738288C2F30122CA730E
:102450000079C0F3460008744C740020F0BD000001
:10246000FF054000426C0A60826C4A60C26C8A6060
:10247000026DCA60426D0A61826D4A61C26D8A61F5
:10248000006EC8610020704738B5002504460095ED
:10249000B0F850000104206801F0B2FE28B9002114
:1024A000206801F021FD0090284610B1A16B014386
:1024B000A1630098C0F3432038BD0000F8B5056B58
:1024C00004460068416B09041BD5290719D5D4E9D6
:1024D0000A56002E14D00027206801F029FD05F8C7
:1024E000010B010A05F8011B010C05F8021B000E87
:1024F000361F7F1C05F8010C082FEDD3C4E90A56DE
:10250000F8BD416B4FF00007C9054FF0010644D5F7
:10251000310281632068C16B4CF23A329143C1634E
:102520002068C16A21F00101C16228071DD515F09C
:10253000220F09D0206801F093FE28B1A16B01435E
:10254000A1632046FFF7C0FE216840F23A5088633D
:1025500084F834602763A80703D0204600F0A8FA67
:10256000F8BD204600F0A8FAF8BD2806FCD5A8065C
:1025700009D5206801F074FE28B1A16B0143A16365
:102580002046FFF7A1FEA807EED12068C16A21F01E
:102590000801C16284F83460E3E7416B490423D544
:1025A000290721D5D4E90856002EDDD0002715F8DB
:1025B000010B009015F8011B361F40EA0120009026
:1025C00015F8021B40EA0140009015F8011C40EA92
:1025D000016000906946206801F0BDFC7F1C082F57
:1025E000E5D3C4E90856F8BD416B40F23A221142E6
:1025F000F9D0416B890703D5A16B41F00201A163BA
:10260000416B090703D5A16B41F00801A163416B40
:10261000890603D5A16B41F02001A163416BC90676
:1026200003D5A16B41F01001A163416B890503D56E
:10263000A16B41F00801A16340F23A718163206807
:10264000C16B40F23A329143C163206801F008FE49
:10265000A16B0843A063280706D584F8346027637C
:102660002046FFF731FEF8BD2806FCD515F0300FE7
:102670000CD0E16B11480865E06BFEF7DAF8002832
:10268000F1D0E06BBDE8F84001F084BFA8070CD0A2
:10269000216C0B480865206CFEF7CBF80028E2D0CF
:1026A000206CBDE8F84001F053BFA76384F83460A4
:1026B00027632046FFF778FDF8BD00009545000828
:1026C0005145000870B504000ED094F83400002580
:1026D00018B92577204600F04BF8032084F8340021
:1026E000204600F00BF808B1012070BDA5632563FA
:1026F000012084F83400002070BD0000FEB50025E4
:10270000044676200095CDE9015029460B460A463D
:10271000206801F0F3FB28BB134E46F8A05F206849
:1027200001F0FEFB01253560204602F039F828B1A2
:1027300084F83450A16B0143A16313E0204601F0FB
:10274000B8FF0028F4D14FF40071206801F03AFC82
:10275000002808D0226805499163A16B0143A16359
:1027600084F834500120FEBD00802542FF05400062
:102770002DE9F04F87B0054614216846FDF76AFD44
:102780004D49286888427DD14C4800684B4940F447
:1027900000600860086800F400600590474814383D
:1027A0000068464940F0040014390860086800F0E9
:1027B00004000590086840F00800086008680127D8
:1027C00000F008000590881500900220CDE901076F
:1027D00003200C24CDE90304394E69463046FEF748
:1027E00087F94FF4F05000900220019000200290F1
:1027F0000320CDE9030469463046FEF779F9042643
:102800000220CDE9006002970320CDE90304694668
:102810002C48FEF76DF92D4C2B484FF00068E4E88A
:102820000208002001C44FF480694FF4805AA4E8E4
:10283000010630034FF0200B64E8060B0020C4E9CA
:102840000806760504F128010320B71081E8C100CD
:102850001E48FEF7D1F808B1FDF77FFF2C64A56391
:102860001B4C19484FF480414830C4E9000840200F
:10287000A06004F10C020020A16182E80106C4E915
:1028800007B000E015E0042060621C32032082E8FB
:10289000C1002046FEF7B0F808B1FDF75EFFEC631B
:1028A000002211463120A563FEF780FA3120FEF7A1
:1028B0006FFA07B0BDE8F08F002C014044380240A9
:1028C00000080240000C024058640240942B002093
:1028D000F42B00202DE9FF4F87B016460D46044625
:1028E000DDF85080FEF7F4F982463DB194F83400EB
:1028F000012807D0A06B40F000500DE0A06B40F025
:10290000006009E00020A0630A99E26D3144914221
:1029100004D9A06B40F00070A06385E0032184F827
:1029200034102168C862616C012900D076024FF032
:10293000FF3100910A994FF001094902019102AA61
:10294000902102278346CDF8149082E882086946D8
:10295000206801F0B3FA0A98012805D927633146A7
:10296000206801F0C1FB05E0C4F8309031462068D2
:1029700001F0D2FB30B122684C499163A16B014355
:10298000A1634DE0019E1FE0406B000413D596B19A
:102990000027206801F0CCFA05F8010B010A05F8C0
:1029A000011B010C05F8021B000E361F7F1C05F8E9
:1029B000010C082FEDD3FEF78BF9A0EB0A0141457E
:1029C0001FD2B8F1000F1CD02068416B40F22A32B0
:1029D0001142D9D0416BC90509D50A99012906D9F7
:1029E000616C032903D001F03BFC0028C3D12068AF
:1029F000416B09071AD52D498163A06B40F008008F
:102A000051E0216829488863A06B40F00040A06332
:102A100084F83490C4F830B003200BB0BDE8F08FD8
:102A200084F83490C4F830B00120F6E7416B890790
:102A300005D51E498163A06B40F0020033E0416B75
:102A400089061CD519498163A06B40F020002AE05B
:102A500001F06EFA05F8010B010A05F8011B010CE3
:102A600005F8021B000E05F8010C361FFEF730F9C1
:102A7000A0EB0A01414510D2B8F1000F0DD020683B
:102A8000416B890201D5002EE2D1216840F23A5013
:102A9000886384F834900020BFE721680348886386
:102AA000A06B40F00040A063BAE70000FF054000C3
:102AB00010B5FDF7E1FC10BD10B5FDF7EFFC10BD42
:102AC0002DE9F04F89B09B4615460E460446FEF7A9
:102AD000FFF807903EB194F83400012807D0A06BAE
:102AE00040F000500DE0A06B40F0006009E00021D4
:102AF000A163E26D05EB0B00904204D9A06B40F09E
:102B00000070A06379E0032084F834002068C1627B
:102B1000606C012800D06D024FF0FF3000904FEA4A
:102B20004B204FF001090190CDE904199020CDE927
:102B300002018A466946206801F0C0F9BBF1010F25
:102B400006D9202020632946206801F0A3FB05E078
:102B5000102020632946206801F0B4FB5FEA0008DA
:102B600006D021683F488863A06B40EA080070E007
:102B7000019F26E0406B40041BD5D7B1002516F815
:102B8000010B069016F8011B3F1F40EA012006903A
:102B900016F8021B40EA0140069016F8011C40EAB4
:102BA0000160069006A9206801F0D5F96D1C082D7A
:102BB000E5D3FEF78DF80799411A1298814220D289
:102BC000F8B12068416B40F21A321142D2D0416B09
:102BD000C90523D5BBF1010F20D9616C03291DD094
:102BE00001F03EFBD0B122681E499163A16B014305
:102BF000A16384F83490C4F830A0012009B0BDE886
:102C0000F08F216817488863A06B40EA0800A06332
:102C100084F83490C4F830A00320EFE72068416BBB
:102C2000090705D50F498163A06B40F0080010E04B
:102C3000416B890705D50B498163A06B40F0020009
:102C400007E0416BC90606D506498163A06B40F0D9
:102C50001000A063CDE740F23A51816384F83490CC
:102C60000020CBE7FF05400070B5040009D0606A82
:102C7000002540B125616561A56294F8510040B11D
:102C80000CE0012070BD6068B0F5827FF4D0E56192
:102C9000F2E784F85050204600F044F8022084F80F
:102CA00051002068016821F040010160A08821895D
:102CB00000F4827001F404410843A18901F4006129
:102CC0000843217C01F002010843217D01F001014C
:102CD0000843218B01F400710843217F01F0380182
:102CE000084394F8201001F080010843218D01F47D
:102CF0000051084321680860A069042101EA1040DE
:102D000094F8241001F010010843216848602068FD
:102D1000C16921F40061C1616565012084F8510039
:102D2000002070BD10B586B0044614216846FDF73A
:102D300091FA13492068884220D112480021026884
:102D400042F480520260006800F4805005900D4803
:102D50001438026842F001020260006800F00100CD
:102D60000590E02000900220CDE9010103200390AE
:102D70000520049069460448FDF7BAFE06B010BD70
:102D80000030014044380240000002402DE9F84F75
:102D90000446406800261D46904689464FF0040BC5
:102DA000B0F5827F01D1A06888B194F85000012865
:102DB00017D0012084F85000FDF78AFF074694F8E9
:102DC00051004FF0000A01280DD002267EE084F861
:102DD00051B0009313460A46204600F036F9BDE88C
:102DE000F88F0220FBE7B9F1000F6ED0B8F1000FA9
:102DF0006BD084F851B0C4F854A0C4F83890A4F84B
:102E00003C80A4F83E80C4F830A0A4F834A0A4F814
:102E100036A0C4F840A0C4F844A0A068B0F5004FA4
:102E200009D12068016821F0400101602068016833
:102E300021F48041016020680168490603D40168DB
:102E400041F040010160E068B8B131E0206881687C
:102E5000C90709D0007BA16B0870A06B401CA06360
:102E6000E08F401EE08708E0FDF732FFC01BA8425C
:102E700002D3681C01D031E07DB3E08F0028E5D19A
:102E800019E020688168C90709D0C068A16B088073
:102E9000A06B801CA063E08F401EE08708E0FDF778
:102EA00017FFC01BA84202D3681C01D016E0A5B1D1
:102EB000E08F0028E5D13A462946204601F024FD5E
:102EC00008B120206065606D00B10126012084F802
:102ED000510084F850A0304681E7FFE70326F5E76C
:102EE0002DE9F84F044690F8500000261D46904604
:102EF000894601280ED04FF0010B84F850B0FDF741
:102F0000E7FE074694F851004146B246012804D036
:102F1000022694E00220BDE8F88FB9F1000F74D0CA
:102F2000B8F1000F71D0032084F85100C4F854A008
:102F3000C4F83090A4F83480A4F83680C4F838A0DF
:102F4000A4F83CA0A4F83EA0C4F844A0C4F840A053
:102F5000A068B0F5004F09D12068026822F0400255
:102F600002602068026842F48042026020680268C1
:102F7000520603D4026842F040020260E068B0F5F5
:102F8000006F606803D028B3012923D03FE008B167
:102F900001291BD1206B21680088C86006E02068E9
:102FA0008168890709D5216B0988C160206B801C65
:102FB0002063E08E401EE08608E0FDF789FEC01B1E
:102FC000A84202D3681C01D030E075B3E08E00281F
:102FD000E5D11FE0206B21680078087306E02068C7
:102FE0008168890709D5216B09780173206B401C22
:102FF0002063E08E401EE08609E0FDF769FEC01BFD
:10300000A84203D3681C02D010E017E06DB1E08E37
:103010000028E4D13A462946204601F0A3FC08B135
:1030200020206065A06818B106E0FFE7032606E0EF
:103030002068C16880680090606D00B1012684F846
:1030400051B084F850A0304665E72DE9F84F0446AA
:1030500090F8500001250A9E1F4692468B464FF07D
:10306000000801280ED0012084F85000FDF730FE42
:10307000814694F85100616801280CD0B1F5827F37
:1030800007D102E00220BDE8F88FA16809B9042841
:1030900001D00220B6E0BBF1000F27D0BAF1000F3B
:1030A00024D01FB394F85100042802D0052084F8DE
:1030B000510000206065C4F838A0E787A787C4F8EE
:1030C00030B0E786A78620646064206801684906FE
:1030D00003D4016841F040010160E068B0F5006F81
:1030E000606805D0E8B3012F43D079E0012089E082
:1030F00008B1012F34D1206B21680088C860206B93
:10310000801C2063E08E401EE08629E020688168F4
:1031100089070DD5E18E59B1012D09D1216B09889F
:10312000C160206B801C2063E08E401EE08600257D
:1031300020688168C9070BD0E18F49B1C068A16BD5
:103140000880A06B801CA063E08F401EE0870125F3
:10315000FDF7BEFDA0EB0900B04201D3701C50D1B9
:1031600000E006E0E08E0028D0D1E08F0028CDD12D
:103170003CE0206B216800780873206B401C2063C2
:10318000E08E401EE0862BE02068816889070DD51F
:10319000E18E59B1012D09D1216B09780173206BA2
:1031A000401C2063E08E401EE08600252068816878
:1031B000C9070BD0E18F49B1C068A16B0870A06B43
:1031C000401CA063E08F401EE0870125FDF780FDD5
:1031D000A0EB0900B04202D3701C01D011E086B10F
:1031E000E08E0028D0D1E08F0028CDD14A4631466C
:1031F000204601F0B7FB38B120204FF00108606590
:1032000008E00320804605E0A06818B92068C1687E
:1032100080680090012084F85100002084F850005C
:10322000404630E710B5401EB0F1807F01D3012049
:1032300010BD4FF0E02460610F21601703F0EDF93D
:103240000020A06107202061002010BD704770475A
:10325000F8B5026804461068D168536910F00F0F82
:103260004FF0000554D003F0010601F49077374386
:103270005FD0C20705D0CA0503D5226C42F0010217
:103280002264420705D5DA0703D0226C42F002021D
:103290002264820705D5DA0703D0226C42F00402CB
:1032A0002264020707D501F02002324303D0226CCA
:1032B00042F008022264226C002A35D0800604D530
:1032C000880602D5204601F097FC20684069216CF1
:1032D000C0F3801001F008010143204625D001F021
:1032E00073FC2068416949061BD5416921F0400102
:1032F0004161A06BA8B159490165A06BFDF799FA2E
:10330000002811D0A06B016D01B0BDE8F040084766
:1033100083060ED58B060CD52046BDE8F84001F09B
:103320006BBC2046FFF793FFF8BDFFF790FF2564C5
:10333000F8BD266B2023012E53D1C60651D5CE06EB
:103340004FD5106850680090506940062BD5A16B8E
:10335000086840680004000CEAD0A68D8642E7D9D0
:10336000E085C869B0F5807F18D0D06820F48070FF
:10337000D0602068416921F0010141612068416904
:1033800021F04001416184F83E3025632068C16826
:1033900021F01001C160A06BFDF704FAA08DE18D52
:1033A000401A81B219E0A08DE18D401A81B2E08D02
:1033B0000028BDD00029BBD0D06820F49070D06028
:1033C0002068426922F00102426184F83E302563A0
:1033D0002068C26822F01002C2602046FFF736FF64
:1033E000F8BD05062BD50D0629D594F83D002128FA
:1033F000F6D1A068B0F5805F01D12069B0B1206A34
:10340000411C2162216800784860E08C401E000465
:10341000000CE084E4D12068C16821F08001C16023
:103420002068C16841F04001C160F8BD206A008891
:10343000C0F308005060206A801C2062E5E7400667
:10344000F3D54806F1D5D168204621F04001D1607E
:1034500084F83D3000F079F9F8BD0000514B0008C8
:1034600070B5040004D094F83D00002510B106E0CA
:10347000012070BD84F83C50204600F023F8242041
:1034800084F83D002068C16821F40051C1602046E5
:1034900001F00AFC2068016921F490410161206873
:1034A000416921F02A0141612068C16841F400515D
:1034B000C1602564202084F83D0084F83E0000208F
:1034C00070BD0000F0B587B0044614216846FCF7D3
:1034D000C1FE4F494D4D206800224D4F1439022343
:1034E000032407264FF0C00CA8421BD1386840F0D7
:1034F00010003860386800F010000590086840F04F
:10350000020008600868CDF800C000F00200CDE9B4
:1035100004600394CDE9013269463E48FDF7E8FABC
:1035200007B0F0BD3A4DDFF8F0E02D1F704520D117
:10353000286840F400302860286800F400300590C6
:10354000086840F001000860086802AF00F0010060
:1035500005900F20CDE9000387E8540069462F4805
:10356000FDF7C6FA002211462620FDF71FFC262093
:1035700024E0DFF8ACE0704523D1286840F48020D7
:103580002860286800F480200590086840F0080052
:103590000860086802AF00F0080005904FF4407022
:1035A000CDE9000387E8540069461E48FDF7A0FAFC
:1035B000002211462720FDF7F9FB2720FDF7E8FB45
:1035C000AEE7194DA842ABD1386840F02000386012
:1035D000386800F020000590086840F0040008609A
:1035E0000868CDF800C000F0040005900820CDE97F
:1035F0000340CDE9013269460C48FDF779FA002213
:1036000011464720FDF7D2FB4720D7E700100140C5
:1036100044380240000402400044004000000240E0
:1036200000480040000C0240001401400008024025
:1036300090F83E30202B0ED159B152B190F83C3069
:10364000012B08D0012380F83C300023036301F0F4
:10365000B1BB012070470220704770472DE9F84345
:10366000044690F83D001F4615460E4620284BD1D3
:10367000C6B1BDB194F83C00012845D0012084F8C2
:103680003C004FF00008C4F84080212084F83D0041
:10369000FDF71EFBA5848146E584A068B0F5805F38
:1036A00003D004E00120BDE8F883206920B135464D
:1036B000002684F83C800EE00025FAE780212046B1
:1036C00001F093FBA0B9ADB115F8010B216848607A
:1036D000E08C401EE084E08C4B464FF000020097E7
:1036E0000028EBD14FF04001204601F07EFB30B1C5
:1036F0000320D8E736F8020BC0F30800E6E72020E5
:1037000084F83D000020CEE70220CCE790F83D3061
:10371000202B18D1A9B1A2B190F83C30012B12D0C6
:1037200001628284C28400210164212280F83D204C
:1037300080F83C100068C16841F08001C160002041
:10374000704701207047022070477047FEE7F0B5D0
:1037500000230A24302537261F4610E0B4EB107FE3
:1037600002D905EB107C01E006EB107C01F813C0D8
:1037700001EB430C00015B1C8CF80170DBB293423F
:10378000ECD3F0BD10B504490448FCF7E8FF02494A
:10379000491E087010BD0000F6060020B48700081E
:1037A0002DE9F04F87B014216846FCF753FD7748A8
:1037B0000024016841F010010160016801F010016E
:1037C0000591016841F004010160016801F0040104
:1037D0000591016841F080010160016801F08001FC
:1037E0000591016841F001010160016801F00101EA
:1037F0000591016841F002010160016801F00201D8
:103800000591016841F0080101600068DFF880A1BE
:1038100000F008000590012214215046FDF753FAEC
:10382000DFF870B1002204215846FDF74CFA00225F
:1038300010215948FDF747FA012230215846FDF77B
:1038400042FA42F20107002239465448FDF73BFA9A
:1038500048F68048002241465046FDF734FA0022DF
:1038600049F6AA014E48FDF72EFA4FF400790122DD
:1038700049467804FDF727FA142001250326CDE9EF
:103880000005CDE9024669465046FDF731F944F29C
:103890000810CDE90004694650460294FDF728F966
:1038A0000A20CDE90004694658460294FDF720F944
:1038B00004200090CDE90154694658460394FDF771
:1038C00017F910200090CDE901546946780403945B
:1038D000FDF70EF93020CDE90005CDE90246694635
:1038E0005846FDF705F90097CDE9015469462B4884
:1038F0000394FDF7FDF8CDF80080CDE90154694649
:1039000050460394FDF7F4F8A8028DE831006946AB
:103910002348FDF7EDF8F0020226CDE90005CDE9D8
:10392000024669461E48FDF7E3F844F20100CDE97E
:10393000000469461A480294FDF7DAF848F2A80034
:103940000090CDE90154694615480394FDF7D0F87D
:103950004FF4A060CDE90004694678040294FDF7B5
:10396000C7F8CDF80090CDE9015469467804039575
:10397000FDF7BEF80096CDE9015469460848039565
:10398000FDF7B6F807B0BDE8F08F00003038024010
:103990000010024000080240000002400004024003
:1039A000000C02402DE9F04F87B014216846FCF767
:1039B00051FC77480024016841F010010160016862
:1039C00001F010010591016841F0040101600168F6
:1039D00001F004010591016841F080010160016876
:1039E00001F080010591016841F001010160016869
:1039F00001F001010591016841F0020101600168D7
:103A000001F002010591016841F0080101600068C0
:103A1000DFF880A100F00800059001221421504633
:103A2000FDF751F9DFF870B1002204215846FDF787
:103A30004AF9002210215948FDF745F901223021A9
:103A40005846FDF740F942F2010700223946544832
:103A5000FDF739F948F68048002241465046FDF707
:103A600032F900224BF6AA014E48FDF72CF94FF42B
:103A70000079012249467804FDF725F91420012533
:103A80000326CDE90005CDE9024669465046FDF71B
:103A90002FF844F20810CDE900046946504602941C
:103AA000FDF726F80A20CDE900046946584602943D
:103AB000FDF71EF804200090CDE9015469465846F0
:103AC0000394FDF715F810200090CDE901546946E4
:103AD00078040394FDF70CF83020CDE90005CDE91A
:103AE000024669465846FDF703F80097CDE90154B0
:103AF00069462B480394FCF7FBFFCDF80080CDE925
:103B00000154694650460394FCF7F2FFA8028DE881
:103B1000310069462348FCF7EBFFF0020226CDE9AD
:103B20000005CDE9024669461E48FCF7E1FF4AF26E
:103B3000A8000090CDE9015469461A480394FCF7A7
:103B4000D7FF44F20100CDE900046946154802940C
:103B5000FCF7CEFF4FF4A060CDE90004694678047D
:103B60000294FCF7C5FFCDF80090CDE901546946F9
:103B700078040395FCF7BCFF0096CDE90154694633
:103B800008480395FCF7B4FF07B0BDE8F08F0000CC
:103B9000303802400010024000080240000002409D
:103BA00000040240000C024030B591B014210AA874
:103BB000FCF750FB0024282168460F94FCF74AFBD1
:103BC00027482649C0E900147F218160FF21C0E910
:103BD000031444618461FEF7E9F808B172B6FEE7A8
:103BE0008DF828408DF829408DF82A400D94012247
:103BF0000AA91B480E94FEF747FA08B172B6FEE711
:103C000001258DF83C508DF83D508DF83E508DF8D3
:103C10003F402A460FA91248FEF7D2F908B172B602
:103C2000FEE78DF800408DF8014004944FF4807059
:103C30008DF802400194039409900594069407942A
:103C40008DF82050012269460548FEF711F9002839
:103C500001D072B6FEE711B030BD00000028004070
:103C6000882900200E4810B50C4901604FF482717C
:103C7000416000218160C1604FF400720161C0E9C0
:103C80000512C1610162416281620A21C162FEF7CF
:103C9000EBFF002801D072B6FEE710BD00300140F6
:103CA0002C2A002010B500220F49104801F0E1FB3A
:103CB00008B1FCF752FD0E490C4801F0CFFD08B1E8
:103CC000FCF74BFD0B49094801F0D1F908B1FCF7AD
:103CD00044FD064801F03CFE002803D0BDE810403A
:103CE000FCF73BBD10BD0000FC060020542C00205A
:103CF000540800204C070020FEE7FEE70148FDF7CE
:103D0000D5B90000443700202DE9F04106680D4682
:103D10000446316C06EB4510D0F8083BD4F810C0CF
:103D20004FF400474FF0200E04F57172BCF1010F03
:103D300008D0DFF898C0614538D1190431D5C0F8F2
:103D4000087B3FE0224E5FEA037C04D5B14239D9BB
:103D50001904F4D436E05FEA836C02D5C0F808EBAE
:103D600030E013F0280F2DD1B14201D91904E6D467
:103D7000C5EBC50104EB8101D0F8100BD1F804327A
:103D8000C0F31200181AC1F81402D1F8080218443E
:103D9000C1F8080295B9D4F8100278B90121206859
:103DA0000AE099060AD5C0F808EB07E035B9D4F85F
:103DB000100218B90021304602F096F9E9B2204607
:103DC000FDF75AF80020BDE8F08100000A31544F99
:103DD0000A30544F2DE9F84F0E46C1EBC60100EBF7
:103DE00081048146D0F80080D4E914103C34884224
:103DF00002D90120BDE8F88F081AA168814200D2DB
:103E00000846C01C870808EB461A15E0451AA0684A
:103E1000A84200D20546E81C870899F810000090D7
:103E2000ABB2F2B24046E16802F0E4FBE06828443D
:103E3000E060A0692844A061DAF8180980B2B842AD
:103E400005D3D4E90501814201D20028DED1D4E9AD
:103E50000501884208D806F00F0101208840D8F8F3
:103E600034188143C8F834180020C3E77047002194
:103E700002E00A38C0B2491C0A28FAD2090740EA0F
:103E80001160704770B505460068C168490613D4D3
:103E90004FF0FF31C160FCF71BFF04464FF47A7608
:103EA00006E0FCF715FF001BB04201D9032070BDEE
:103EB0002868C0684006F4D5002070BD0A684262D8
:103EC0004A688262D1E902231A43D1E904310B43E3
:103ED000C16A1A4321F0F7011143C1620020704703
:103EE000006800F003007047084440697047000014
:103EF0000148FEF7E3BA0000A829002070B50DF1D3
:103F0000100C11439CE87000234319432943426875
:103F1000314347F6FF639A430A434260002070BD75
:103F200010B5032101600220FCF7D0FD002010BD78
:103F3000D0F8800070470A688260D1E901231A43F3
:103F4000D1E903310B43C1681A436FF30B011143ED
:103F5000C160002070470968C0F8801000207047D9
:103F600010B586B004460091372101914021002010
:103F7000CDE902100801049069462046FFF7DBFFF7
:103F800041F288323721204600F0B4F906B010BD66
:103F900010B50B4A86B0044611432920CDE9001024
:103FA0004020029000200390500D04906946204666
:103FB000FFF7C1FF204600F055FA06B010BD000023
:103FC0000000108010B586B00446009110210191C8
:103FD00040210020CDE902100801049069462046E6
:103FE000FFF7A9FF41F288321021204600F082F944
:103FF00006B010BD10B586B00446009106210191AF
:1040000040210020CDE902100801049069462046B5
:10401000FFF791FF41F288320621204600F06AF94D
:1040200006B010BD30B585B0002504460095019559
:104030004FF480600295CDE9035069462046FFF7B2
:104040007AFF0B484FF4FA510068B0FBF1F141F2EE
:1040500088304143491E02D24FF0004504E0606BB6
:104060000006F7D5C520A06305B0284630BD000086
:104070006C07002070B585B004464FF4D5700090F1
:1040800008204026CDE901060025C001CDE90350F6
:1040900069462046FFF74FFF12484FF4FA51006877
:1040A000B0FBF1F141F288304143491E02D24FF09A
:1040B000004514E0606B10F0450FF6D00005F4D415
:1040C000606B400701D5042503E0606BC00702D098
:1040D0000125A56303E0606B400600D5A66305B02B
:1040E000284670BD6C07002010B586B004460091CC
:1040F0001221019140210020CDE902100801049015
:1041000069462046FFF717FF41F288321221204608
:1041100000F0F0F806B010BD10B586B0044600916E
:104120001121019140210020CDE9021008010490E5
:1041300069462046FFF7FFFE41F2883211212046F2
:1041400000F0D8F806B010BD10B586B004460721BF
:1041500040200092CDE90110002003904FF48060D0
:10416000049069462046FFF7E6FE41F288320721B7
:10417000204600F0BFF806B010BD10B586B0002193
:1041800002220446C020CDE90201CDE9001250020E
:10419000049069462046FFF7CEFE204600F03AF92B
:1041A00006B010BD10B586B00446009109210191FA
:1041B000C0210020CDE902104FF4806004906946D0
:1041C0002046FFF7B8FE204600F024F906B010BDE7
:1041D00010B586B00021044640203322CDE902010B
:1041E000CDE900120001049069462046FFF7A3FEC6
:1041F00041F288323321204600F07CF806B010BD31
:1042000010B586B0044600910D2101914021002097
:10421000CDE902100801049069462046FFF78BFEA5
:1042200041F288320D21204600F064F806B010BD3E
:1042300030B585B0054600230320CDE9003040208D
:10424000CDE9020300010C46049069462846FFF7B9
:1042500072FE22460321284600F026F905B030BD43
:1042600010B586B00021044640200C22CDE90201A1
:10427000CDE900120001049069462046FFF75BFE7D
:10428000034A0C21204600F035F806B010BD0000AE
:1042900000E1F50510B586B00446009119210191A1
:1042A00040210020CDE90210080104906946204613
:1042B000FFF741FE41F288321921204600F01AF83A
:1042C00006B010BD10B586B00446009118210191CA
:1042D00040210020CDE902100801049069462046E3
:1042E000FFF729FE41F288321821204600F002F83B
:1042F00006B010BD454B10B51B684FF4FA54B3FB24
:10430000F4F353435B1E02D24FF0004010BD426BEA
:1043100012F0450FF6D01205F4D4426B520703D5C4
:1043200004218163084610BD426BD20702D00121EF
:10433000816305E0C52282630269D2B28A4201D05C
:10434000012010BD0021FFF7CFFD3149084201D106
:10435000002010BD002802DA4FF0007010BD4100AF
:1043600001D5402010BD810001D5802010BDC100C5
:1043700002D54FF4807010BD010102D54FF40070DA
:1043800010BD410102D54FF4806010BDC10102D5BE
:104390004FF4006010BD010202D54FF4805010BDF3
:1043A000410202D54FF4005010BD810202D54FF4F6
:1043B000804010BDC10202D54FF4004010BD410342
:1043C00002D54FF4003010BD810302D54FF4802098
:1043D00010BDC10302D54FF4002010BD010402D569
:1043E0004FF4801010BD410402D54FF4001010BDF1
:1043F000810402D54FF4800010BD000702D54FF4B0
:10440000000010BD4FF4803010BD00006C0700208C
:1044100008E0FFFD12494FF4FA520968B1FBF2F2CD
:1044200041F288314A43521E02D24FF00040704799
:10443000416B11F0450FF6D00905F4D4416B4907E3
:1044400003D50421816308467047416BC90703D037
:104450000121816308467047C521816300207047B0
:104460006C0700200F494FF4FA520968B1FBF2F2D1
:1044700041F288314A43521E02D24FF00040704749
:10448000416B11F0450FF6D00905F4D4416B490793
:1044900003D50421816308467047C521816300204C
:1044A000704700006C07002030B5204B4FF4FA54E1
:1044B0001B68B3FBF4F441F288335C43641E02D200
:1044C0004FF0004030BD436B13F0450FF6D01B0595
:1044D000F4D4436B5B0703D504218163084630BDE8
:1044E000436BDB0702D00121816303E00369DBB288
:1044F0008B4201D0012030BDC52181630021FFF72F
:10450000F3FC10F4604F04D0410406D54FF4005082
:1045100030BD000C1080002030BD000402D54FF4E7
:10452000805030BD4FF4803030BD00006C0700205B
:1045300010B5064C01202070FBF75CFF18B92078FD
:1045400020F001002070207810BD0000F40600204B
:1045500010B5846B40F23A50216888632046FDF71D
:1045600093FF012184F8341000212163062801D033
:10457000052805D12068FFF773FEA16B0843A063EF
:10458000A06B0028204602D0FDF79EFE10BDFDF76F
:104590000BFE10BD10B5846B40F23A502168886361
:1045A0002046FDF771FF012184F8341000212163BA
:1045B000062801D0052805D12068FFF751FEA16B20
:1045C0000843A063A06B0028204602D0FDF77CFEC4
:1045D00010BDFDF7E9FD10BD2DE9F04788B00E468E
:1045E0000446FCF775FB0025074606950795A84687
:1045F00008212068FFF7E6FC00282AD1B4F8500013
:1046000001042068FFF7ACFC002822D1401E4FF0C7
:104610000809CDE9000930204FF0020ACDE9020A6D
:104620000120CDE9048069462068FFF747FC206837
:10463000FFF7CEFD00280CD10DF118082068416B62
:1046400011F02A0F08D0416B090719D5C0F838902E
:10465000082008B0BDE8F087416B890205D5FFF757
:1046600067FC48F825006D1C02E0416B8904EAD51F
:10467000FCF72EFBC01B401CE0D14FF00040E8E7E8
:10468000416B890703D5C0F838A00220E1E7416BF0
:10469000890603D5202181630846DAE740F23A51C2
:1046A0008163079800BA3060069800BA70600020F5
:1046B000CFE710B590B004460120ADF8380020686F
:1046C000FFF70EFC002854D0606C032842D020680D
:1046D000FFF753FD00284AD100212068FFF704FCB2
:1046E000606704212068FFF7FFFBA06708212068AE
:1046F000FFF7FAFBE0670C212068FFF7F5FBC4F831
:104700008000606C032825D00EA92068FFF790FD7B
:1047100000282CD1606C03281CD0BDF8380020651F
:1047200001042068FFF73EFD002820D10021206809
:10473000FFF7DAFB606604212068FFF7D5FBA0666F
:1047400008212068FFF7D0FBE0660C212068FFF706
:10475000CBFB206704212068FFF7C6FB000DE06457
:1047600003A92046FDF7B2FD30B14FF0805010B0E4
:1047700010BD4FF08060FAE7B4F850000023020447
:104780002068FFF7E1FC0028F1D104F1100007C810
:104790008DE8070094E80F00FFF7B0FB0020E6E784
:1047A0002DE9F84F00260446009637463546006846
:1047B000FFF738FC002827D12068FFF75BFC4FF09B
:1047C000805B4FF001094FF6FF7848B1A66420687E
:1047D000FFF728FC002817D1A06C012802D01FE0A9
:1047E000C4F8489000212068FFF7BAFB58B917E0D9
:1047F00000212068FFF7B4FB002805D1514620684E
:10480000FFF7C6FB10B15846BDE8F88F00212068BD
:10481000FFF76AFB0746C50F0098401C009001E0B7
:10482000DFF824A00099414501D2002DE0D0414598
:1048300002D34FF08070E7E7780002D5C4F84490C7
:1048400000E066640020DFE7000010C170B5064C90
:10485000054601202070FBF7D9FD18B92846FFF75F
:1048600067FE2070207870BDF406002010B5124855
:1048700088B014460078C00702D0032008B010BDED
:10488000C1B1012905D0022908D003290CD0042088
:10489000F4E76846FBF7A8FD06980AE06846FBF7D0
:1048A000A3FD0798208005E06846FBF79DFD07986B
:1048B000400A20600020E1E7F406002070B51D46A4
:1048C000164608460124A31E2A463146FBF7C4FDBE
:1048D00020B9FBF78FFD0028FBD10024204670BDD6
:1048E000FFF726BE70B51D46164608460124A31ED6
:1048F0002A463146FBF7C2FD20B9FBF77BFD0028B5
:10490000FBD10024204670BDF8B5044640684FF442
:104910008273984221D1A0684FF48065B0F5004FB2
:1049200001D0A8420AD12068066826F04006066039
:104930006068984211D1A068A8420ED000920B4640
:1049400000228021204600F039F8002804D0606D54
:1049500040F0200060650320F8BD00920B46002265
:104960000121EFE738B504461248134D4FF47A732E
:104970000068B0FBF5F0584300906068B0F5827FA6
:104980000DD10B46009200228021204600F016F83F
:1049900070B1606D40F020006065032038BD009864
:1049A00030B1401E009020688068C0430006F6D5F4
:1049B000002038BD6C07002000366E012DE9F84359
:1049C0001E46914688460446089DFCF781F9401B27
:1049D000351AFCF77DF9074625480068C0F3CB304F
:1049E000684338E0701C37D0FCF772F9C01BA8424E
:1049F00003D215B1009860B32CE02068416821F023
:104A0000E00141606068B0F5827F0BD1A068B0F52D
:104A1000004F02D0B0F5806F04D12068016821F00A
:104A200040010160A06AB0F5005F09D1206801680B
:104A300021F4005101602068016841F400510160D7
:104A4000012084F85100002084F850000320BDE8C4
:104A5000F8830025401E00902068816838EA010034
:104A600004D000204845BDD10020F0E70120F9E73F
:104A70006C07002070470178407841EA00207047B9
:104A8000FCF72CB910B596B030216846FBF7E2FB75
:104A900014210CA8FBF7DEFB00201190129013905C
:104AA00014902548016841F080510160006800F0D1
:104AB000805015902148016841F4804101600068F0
:104AC000022400F480401590052000904FF48030BF
:104AD0000190012002908005CDE906401920089040
:104AE0004FF4A870CDE9090407200B906846FCF745
:104AF000B1FF08B172B6FEE70F20CDE90C0490209B
:104B00000E904FF4A0500F904FF480501090012160
:104B10000CA8FCF7ADFE08B172B6FEE74FF480704A
:104B20001490119411A8FCF705FE002801D072B66C
:104B3000FEE716B010BD0000403802400070004093
:104B40000248016841F470010160704788ED00E09F
:104B500010B5806B0021C185C184FEF778FB10BDC4
:104B600070B586B014A003AB07C883E80700002027
:104B700000900190044603AD6E460290291901226F
:104B80001048FEF7C3FD311901220E48FEF750FD13
:104B90003220FBF79BFF641CE4B2092CEED906A17E
:104BA0006846FBF769FB28B903F0C0FA10B1102082
:104BB00006B070BD1120FBE755736172742032217D
:104BC00000000000502B00200168CA6822F4907297
:104BD000CA6001684A6922F001024A61016B012939
:104BE00004D10168CA6822F01002CA60202180F84E
:104BF0003E1000210163704710B5044690F83E0056
:104C0000222801D0022010BDA0684FF480529042AB
:104C100001D1216921B1A16A90421BD048B10AE0BB
:104C20002168A06A4968C1F308010180A06A801C5C
:104C300008E0206970B12068406800F07F000870CB
:104C4000A06A401CA062E08D401E0004000CE085BC
:104C500003D01CE020684068F1E72068C16821F0BB
:104C60002001C1602068C16821F48071C1602068A2
:104C7000416921F001014161202084F83E00206B50
:104C8000012806D02046FEF7E8FC00202063002023
:104C900010BD2068C16821F01001C160A18D2046BF
:104CA000FEF7D4FAF1E7000070B504460068016928
:104CB000E26821F4405111430161A1682069E26971
:104CC00001436069104301432068C26849F20C63E4
:104CD0009A430A43C26020684169A26921F4407185
:104CE0001143416131492068884202D030498842ED
:104CF00002D1FCF76DFE01E0FCF75AFEE2690023E9
:104D0000192164253226B2F5004F626828D0A0FB35
:104D10000101930F9200FBF753FA0146B0FBF5F047
:104D20006FF01802504301EB800006EB0010B0FB5F
:104D3000F5F000F0F002B1FBF5F002EB0012B1FB70
:104D4000F5F06FF01803584301EB800006EB0010FC
:104D5000B0FBF5F000F00F0021681044886070BDD2
:104D6000A0FB010192185B41FBF72AFA0146B0FB58
:104D7000F5F00201B1FBF5F06FF01803584301EBB9
:104D8000800006EBC000B0FBF5F000F0F80002EB8D
:104D90004002B1FBF5F0584301EB800006EBC00088
:104DA000B0FBF5F000F00700D6E70000001001406E
:104DB0000014014081628285C285002101642222A3
:104DC00080F83E2080F83C100168CA6842F4807286
:104DD000CA6001684A6942F001024A610068C1681C
:104DE00041F02001C160002070472DE9F0411E46CE
:104DF000174688460446069D1CE0681C1AD025B15B
:104E0000FBF766FF801BA84214D92068C16821F413
:104E1000D071C1602068416921F001014161202009
:104E200084F83D0084F83E00002084F83C00032014
:104E3000BDE8F0812068016838EA010004D0002054
:104E4000B842DAD00020F3E70120F9E70148FEF785
:104E5000FFB90000C82A00200148FEF7F9B9000098
:104E60000C2B00200148FEF7F3B90000502B002066
:104E70002DE9F0410C46D0F8C452D0F8BC12F9B17B
:104E800004EB840200EB8202002693694BB1C4EB71
:104E9000C40705EB87056D6CB3FBF5F705FB17330E
:104EA00083B1C1F81468D0F8C00203692BB1D1F8FE
:104EB0000808224601F5016198470020BDE8F0810D
:104EC0000320FBE7002396611A46214600F0A5FC6B
:104ED000F3E770B5D0F8BC4205466CB100F086FB34
:104EE000C4F80C08D5F8C012D4F80408CA6804F64F
:104EF0000C019047002070BD032070BD70B50446C2
:104F0000812100F0D2FA002525870121204600F0FA
:104F1000CCFAA4F878518221204600F0C6FAA4F811
:104F20004C50A4F84E50D4F8BC0248B1D4F8C0029A
:104F300004F52F7440688047206800F05EFE25600D
:104F4000002070BD10B5D0F8BC4284B1D0F8C012BA
:104F500059B194F80008FF2807D08B6894F801280D
:104F600021469847FF2084F80008002010BD032048
:104F700010BD00000A210180004870477C07002016
:104F80004321018000487047CC0700204321018065
:104F9000004870478807002043210180004870477F
:104FA000100800202DE9F047044640F61C0000F0F0
:104FB00025FE05004FF0000735D0C4F8BC52207C18
:104FC0004FF010084FF40069012680B340230222FD
:104FD0008121204600F06EFB26874023022201211A
:104FE000204600F067FBA4F87861A4F84E800823FF
:104FF00003228221204600F05DFBA4F84C60D4F827
:10500000C00200688047C5F81478C5F81878207C7D
:10501000D5F80428A8B140230121204600F056FB12
:105020000020BDE8F0870220C4F8BC72F9E7FFE772
:105030004B4602228121204600F03CFB26874B464E
:10504000CCE74B46E8E710B5D0F8BC1251B1027C72
:10505000002AD1F8042807D04023012100F036FBB4
:10506000002010BD032010BD4FF40063F5E719B117
:10507000C0F8C0120020704703207047D0F8BC026F
:1050800018B1C0F804180020704703207047D0F80A
:10509000BC0228B1C0F81028C0F8081800207047DA
:1050A000032070472DE9FC410646D0F8BC72002071
:1050B0000C468DF80000ADF80400054637B12078A5
:1050C00010F0600128D0202944D102E00320BDE87F
:1050D000FC81E288C2B1000660780AD5D6F8C01219
:1050E0008B6839469847E288072A00D90722394653
:1050F00028E087F80008A07987F80108E288394697
:10510000304600F06CF82AE0D6F8C0126078002231
:105110008B682146984722E0607830B101281ED084
:105120000A2809D00B2815D110E096F89C02032814
:1051300010D1022201A905E096F89C02032809D1AA
:1051400001226946304600F064F808E096F89C02B7
:10515000032804D02146304600F036F803252846BF
:10516000B5E710B5D0F8BC12012219B1D1F8143846
:1051700013B10FE0032010BD0122C1F81428D1F8AB
:105180001028C262D1F81038D1F80828812100F027
:1051900044FB0022104610BD10B5D0F8B8220AB169
:1051A00052689047002010BD134610B50A460021F2
:1051B00000F08CFA002010BD134610B50A460021FD
:1051C00000F02BFB002010BD10B50446802100F03C
:1051D00009FB2046BDE81040002100F003BB10B5DC
:1051E0000323C0F89432C0F858211346C0F85C215C
:1051F0000A46002100F06AFA002010BD10B5052112
:10520000C0F8941200231A46194600F05FFA0020F5
:1052100010BD10B50223C0F8943282611346C261FA
:105220000A46002100F0F9FA002010BD10B5042153
:10523000C0F8941200231A46194600F0EEFA002036
:1052400010BD000010B50A46024903A000F0E1F8C5
:10525000004810BD4C3B002043444320436F6E6622
:105260006967000012200880004870471C07002072
:1052700010B50A46024903A000F0CBF8004810BD63
:105280004C3B002043444320496E74657266616361
:1052900065000000042008800048704718070020BF
:1052A00010B50A46024903A000F0B3F8004810BD4B
:1052B0004C3B002054686520466163746F7279200E
:1052C000484B410010B50A46024903A000F0A1F87E
:1052D000004810BD4C3B00205461726A6574612027
:1052E000646520636F6D756E69636169636F6E20BD
:1052F000484B410010B51A2008800A480168001D7B
:105300000468001D0068081809D008220649FEF745
:105310001EFA0549042210312046FEF718FA024809
:10532000801E10BD107AFF1F32070020F8B504461A
:105330000020ADF8000048880D46010A08295FD218
:10534000DFE801F05E0409175E5E3D45D4F8B41253
:10535000207C0A6819E0207C02260028D4F8B802D4
:1053600005D0C16A684688470146467039E0816ABF
:10537000F8E7C0B2062843D2DFE800F0030B1115AE
:10538000191DD4F8B402426806E069469047014608
:1053900027E0D4F8B40282688AB3207CF5E7D4F819
:1053A000B402C268F8E7D4F8B4020269F4E7D4F8AA
:1053B000B4024269F0E7D4F8B4028269ECE7207CD9
:1053C000E8B9D4F8B802416B68468847DFE7207C2B
:1053D000A8B9D4F8B802016B68468847014607208F
:1053E0004870EA888AB1BDF8000040B1824200D915
:1053F0000246ADF800202046FFF70BFFF8BDFFE79F
:1054000029462046FFF7E0FEF8E72046FFF70EFFAB
:10541000F4E770B5002300281ED00025044602E002
:105420006D1CEDB2641C2678002EF9D1022404EB29
:10543000450414801278CA545B1C0322CA54002409
:105440005B1C06E0CA545B1CDAB28C54521CD3B20B
:10545000401C0278002AF5D170BD01004FF0000019
:1054600004D0012901D0022901D003207047012076
:10547000704778B10023C0F8B832C0F8C032C0F825
:10548000CC3209B1C0F8B412012180F89C1202702C
:1054900000F0B0B80320704710B5D0F8C402FBF795
:1054A0001FFDBDE81040FFF7D8BF10B5D0F8C4020B
:1054B000FBF7F0FCBDE81040FFF7CFBF70B5164614
:1054C000044621B194F89C02032841D048E0D4F866
:1054D000941204F114000025022932D1D0E90232DD
:1054E000934206D99A1A826031462046FFF764FE3D
:1054F0000FE09A4214D14068904211D3D4F8981228
:1055000088420DD2002211462046FFF755FEC4F80E
:10551000985200231A461946204600F0D7F810E0AA
:1055200094F89C02032805D1D4F8B802C16809B1E7
:10553000204688478021204600F054F92046FFF796
:105540005DFE94F8A00201280AD184F8A05207E079
:10555000D4F8B80242691AB120469047002800D119
:10556000002070BD10B51346044621B194F89C028A
:10557000032823D02AE0D4F8941204F5AA70032952
:1055800024D1D0E902218A420AD9521A82600846FF
:10559000824200D3024619462046FFF705FE15E079
:1055A00094F89C02032805D1D4F8B802016909B126
:1055B000204688472046FFF739FE07E0D4F8B802B6
:1055C00082691AB120469047002800D1002010BD02
:1055D0000020704710B5012180F89C12D0F8B82245
:1055E00012B1526801799047002010BDD0F8C40272
:1055F000FBF7A4BC10B5017839BB15490222C1F8EC
:105600000404C0F8C4124FF0A040086004204860B1
:105610000020C1E90320C1E9062008624862C8628F
:1056200008630846FBF760FF08B1FBF796F8802196
:105630000748FBF7EEFB402200210548FBF7EDFB96
:10564000802201210248FBF7E8FB002010BD00008A
:10565000443700200A0601F07F01D0F8C402C1EBF4
:10566000C10100EB810002D590F83E00704790F830
:10567000FE01704710B5D0F8B82222B190F89C32E4
:10568000032B02D004E0032010BD126A02B1904740
:10569000002010BD10B5D0F8B82222B190F89C328D
:1056A000032B02D004E0032010BD526A02B19047E0
:1056B000002010BD10B51C461346D0F8C402224687
:1056C000FBF745FCBDE81040FFF7C7BE10B5D0F8AA
:1056D000C402FBF76CFCBDE81040FFF7BEBE70B51E
:1056E0000125044680F89C520020C4F894026060B2
:1056F000C4F8A402D4F8B802E0B1D4F8BC1221B1C5
:10570000426812B1002120469047002240231146F2
:105710002046FFF7CFFF4026A4F86451334600220D
:1057200080212046C4F86061FFF7C4FFA5840020F3
:10573000266270BD032070BD90F89C12042903D12D
:1057400090F89D1280F89C120020704710B5D0F898
:10575000B81221B190F89C22032A02D004E0032061
:1057600010BDC96901B18847002010BD0174002037
:10577000704710B5D0F8C402FBF788FFBDE81040B1
:10578000FFF76BBE70B5044600F2AA20054600F094
:105790004DF80120C4F89402B4F8B002C4F898029D
:1057A00094F8AA2212F01F000AD001280ED0022875
:1057B00012D02046BDE8704002F0800100F012B81F
:1057C00029462046BDE8704000F0C4B8294620466E
:1057D000BDE8704000F0E8B929462046BDE87040B9
:1057E00000F042B910B5D0F8C402FBF704FCBDE8E4
:1057F0001040FFF732BE10B5D0F8C402FBF761FFCE
:10580000BDE81040FFF729BE90F89C1280F89D1269
:10581000042180F89C120020704710B5D0F8C40213
:10582000FBF723FCBDE81040FFF717BE70B5044638
:1058300011F8010B207011F8010B60700D4608463D
:10584000FFF719F9A91C60800D460846FFF713F908
:10585000A080A81CFFF70FF9E08070BD38B50446A2
:105860000020ADF8000049B1C4F8B812C96A19B1F6
:1058700068468847C4F8CC02002038BD032038BDF4
:1058800003460320D3F8B822002A02D01268184633
:10589000104770472DE9F0410F462C4E89780025BE
:1058A00004463170012906D939462046FFF78CFCA1
:1058B0000320BDE8F08194F89C0202280CD0032854
:1058C0001DD039462046FFF77FFC31782046FFF790
:1058D00063FC03252846ECE799B320466160FFF797
:1058E000CFFF050004D039462046FFF76DFCF1E7F5
:1058F0002046FFF79BFC032084F89C02EAE74FF068
:105900000208C1B1606888421BD0C1B22046FFF7CF
:1059100043FC317820466160FFF7B2FF050010D0EC
:1059200039462046FFF750FC21792046FFF734FC2A
:1059300084F89C82CEE784F89C8220466160FFF761
:105940002BFC2046FFF772FCC4E70000780700201C
:10595000FFF751BF2DE9F0410A78002712F06002ED
:1059600008D0202A01D0402A71D1D0F8B8229268FC
:10597000904731E04A78002301260A2A67D2DFE8FF
:1059800002F0415E6658660805662D29FFF7CEFCD9
:105990005FE004468888D8B9C888C8B94888802894
:1059A00016D200F07F0594F89C02032810D084F8EA
:1059B0009E5229462046FFF7DCFE2046FFF736FCC4
:1059C0001DB1022084F89C0243E084F89C6240E010
:1059D00020463CE0FFF75EFF07463AE0CA88012A0E
:1059E00035D190F89C22012A04D0022A02D0032A41
:1059F0002DD104E0012200F10801836016E00122AC
:105A0000011D13E090F89C22012A03D0022A01D044
:105A1000032A1CD1CA88022A19D1C660D0F8A41260
:105A200009B10321C160022200F10C01FFF7F1FB73
:105A30000FE0498801290CD1C0F8A46211E090F868
:105A40009C22012A08D0022A06D0032A04D0FFF79C
:105A5000BBFB3846BDE8F08149880129F9D1C0F87F
:105A6000A432FFF7E3FBF4E72DE9F0410D460446CD
:105A700028780027097910F060000BD0202801D089
:105A800040286DD1D4F8B802294682682046904754
:105A9000074686E06878A8B3012822D003287CD185
:105AA00094F89C02022802D0032876D10BE000294A
:105AB00073D0802971D02046FFF794FE80212046C4
:105AC000FFF790FE6DE0688838B931B1802904D0C5
:105AD000E88810B92046FFF785FE2046FFF7A6FBB1
